:020000040800F2
:10000000F8FF01203104080881020808830208086B
:100010008502080887020808890208080000000015
:1000200000000000000000000000000061750808EA
:100030008B020808000000000176080865760808B1
:10004000810408088104080881040808810408085C
:100050008104080881040808BDAE0408C7AE04087E
:10006000D1AE0408DBAE0408E5AE040875AA0408A6
:1000700089AA0408A1AA0408B9AA0408D1AA0408F4
:10008000E9AA040801AB040881040808B1B0040817
:1000900081040808C1B0040881040808EFAE040810
:1000A000810408088D0208088104080881040808F2
:1000B00081040808810408088104080881040808EC
:1000C00081040808810408088104080881040808DC
:1000D0008104080859CC040849CC040881040808A4
:1000E000FBAE040881040808000000008104080831
:1000F00081040808810408088104080819AB040871
:100100008104080879B304088104080881040808F8
:10011000810408088104080881040808810408088B
:1001200031AB040845AB04085DAB040875AB0408AB
:100130008DAB0408810408088104080881040808BC
:1001400000000000000000000000000000000000AF
:10015000A5AB0408BDAB0408D5AB040881040808AE
:10016000810408088104080881040808810408083B
:1001700081040808810408088104080800000000C0
:10018000810408088104080839CC040869CC0408F3
:10019000810408088104080881040808810408080B
:1001A00081040808810408088104080881040808FB
:1001B00081040808810408088104080881040808EB
:1001C00081040808810408088104080881040808DB
:1001D00081040808B9EE04088104080881040808AD
:1001E00081040808810408088104080881040808BB
:1001F00081040808810408088104080881040808AB
:10020000810408088104080881040808810408089A
:10021000810408088104080881040808810408088A
:10022000810408088104080881040808000000000F
:1002300081040808810408080000000081040808FF
:1002400081040808EDAB040805AC04081DAC0408E3
:1002500035AC04084DAC040865AC04087DAC04085A
:1002600095AC040881040808810408088104080882
:1002700081040808810408088104080800000000BF
:1002800081040808810408088104080800000000AF
:080290000000000081040808D1
:020000040804EE
:1000000081F0004102E000BF83F0004330B54FEAC9
:1000100041044FEA430594EA050F08BF90EA020F36
:100020001FBF54EA000C55EA020C7FEA645C7FEAC9
:10003000655C00F0E2804FEA5454D4EB5555B8BFEC
:100040006D420CDD2C4480EA020281EA030382EA5D
:10005000000083EA010180EA020281EA0303362DEF
:1000600088BF30BD11F0004F4FEA01314FF4801CC2
:100070004CEA113102D0404261EB410113F0004FD4
:100080004FEA03334CEA133302D0524263EB43038B
:1000900094EA050F00F0A780A4F10104D5F1200E29
:1000A0000DDB02FA0EFC22FA05F2801841F1000184
:1000B00003FA0EF2801843FA05F359410EE0A5F158
:1000C00020050EF1200E012A03FA0EFC28BF4CF089
:1000D000020C43FA05F3C01851EBE37101F000453F
:1000E00007D54FF0000EDCF1000C7EEB00006EEB4C
:1000F0000101B1F5801F1BD3B1F5001F0CD34908D6
:100100005FEA30004FEA3C0C04F101044FEA44522C
:1001100012F5800F80F09A80BCF1004F08BF5FEAB3
:10012000500C50F1000041EB045141EA050130BD93
:100130005FEA4C0C404141EB0101013C28BFB1F5A5
:10014000801FE9D291F0000F04BF01460020B1FAF0
:1001500081F308BF2033A3F10B03B3F120020CDAC3
:100160000C3208DD02F1140CC2F10C0201FA0CF0A1
:1001700021FA02F10CE002F11402D8BFC2F1200C06
:1001800001FA02F120FA0CFCDCBF41EA0C019040BC
:10019000E41AA2BF01EB0451294330BD6FEA040405
:1001A0001F3C1CDA0C340EDC04F11404C4F12002F0
:1001B00020FA04F001FA02F340EA030021FA04F302
:1001C00045EA030130BDC4F10C04C4F1200220FA59
:1001D00002F001FA04F340EA0300294630BD21FA97
:1001E00004F0294630BD94F0000F83F4801306BF5D
:1001F00081F480110134013D4EE77FEA645C18BF51
:100200007FEA655C29D094EA050F08BF90EA020FE7
:1002100005D054EA000C04BF1946104630BD91EADF
:10022000030F1EBF0021002030BD5FEA545C05D1E2
:100230004000494128BF41F0004130BD14F5800421
:100240003CBF01F5801130BD01F0004545F0FE4195
:1002500041F470014FF0000030BD7FEA645C1ABFCA
:10026000194610467FEA655C1CBF0B46024650EA01
:10027000013406BF52EA033591EA030F41F400212D
:1002800030BD00BF90F0000F04BF0021704730B5B3
:100290004FF4806404F132044FF000054FF0000188
:1002A00050E700BF90F0000F04BF0021704730B549
:1002B0004FF4806404F1320410F0004548BF40421E
:1002C0004FF000013EE700BF42004FEAE2014FEA73
:1002D00031014FEA02701FBF12F07F4393F07F4F4E
:1002E00081F06051704732F07F4208BF704793F051
:1002F0007F4F04BF41F40021704730B54FF4607464
:1003000001F0004521F000411CE700BF50EA010266
:1003100008BF704730B54FF000050AE050EA01020F
:1003200008BF704730B511F0004502D5404261EB7F
:1003300041014FF4806404F132045FEA915C3FF4C0
:10034000D8AE4FF003025FEADC0C18BF03325FEA5D
:10035000DC0C18BF033202EBDC02C2F1200300FA0E
:1003600003FC20FA02F001FA03FE40EA0E0021FA33
:1003700002F11444BDE600BF70B54FF0FF0C4CF421
:10038000E06C1CEA11541DBF1CEA135594EA0C0FD3
:1003900095EA0C0F00F0DEF82C4481EA030621EA0E
:1003A0004C5123EA4C5350EA013518BF52EA033549
:1003B00041F4801143F4801338D0A0FB02CE4FF0FB
:1003C0000005E1FB02E506F00042E0FB03E54FF02B
:1003D0000006E1FB03569CF0000F18BF4EF0010E23
:1003E000A4F1FF04B6F5007F64F5407404D25FEA1F
:1003F0004E0E6D4146EB060642EAC62141EA5551D2
:100400004FEAC52040EA5E504FEACE2EB4F1FD0C13
:1004100088BFBCF5E06F1ED8BEF1004F08BF5FEA91
:10042000500E50F1000041EB045170BD06F0004643
:1004300046EA010140EA020081EA0301B4EB5C04F0
:10044000C2BFD4EB0C0541EA045170BD41F48011E8
:100450004FF0000E013C00F3AB8014F1360FDEBF0D
:10046000002001F0004170BDC4F10004203C35DAE9
:100470000C341BDC04F11404C4F1200500FA05F36C
:1004800020FA04F001FA05F240EA020001F000420D
:1004900021F0004110EBD37021FA04F642EB060183
:1004A0005EEA430E08BF20EAD37070BDC4F10C04AD
:1004B000C4F1200500FA04F320FA05F001FA04F271
:1004C00040EA020001F0004110EBD37041F100015D
:1004D0005EEA430E08BF20EAD37070BDC4F1200568
:1004E00000FA05F24EEA020E20FA04F301FA05F2D0
:1004F00043EA020321FA04F001F0004121FA04F278
:1005000020EA020000EBD3705EEA430E08BF20EA47
:10051000D37070BD94F0000F0FD101F00046400081
:1005200041EB010111F4801F08BF013CF7D041EA03
:10053000060195F0000F18BF704703F00046520007
:1005400043EB030313F4801F08BF013DF7D043EAD8
:100550000603704794EA0C0F0CEA135518BF95EA8E
:100560000C0F0CD050EA410618BF52EA4306D1D115
:1005700081EA030101F000414FF0000070BD50EA34
:10058000410606BF1046194652EA430619D094EABE
:100590000C0F02D150EA013613D195EA0C0F05D1A8
:1005A00052EA03361CBF104619460AD181EA0301FC
:1005B00001F0004141F0FE4141F470014FF00000B4
:1005C00070BD41F0FE4141F4780170BD70B54FF04F
:1005D000FF0C4CF4E06C1CEA11541DBF1CEA1355CF
:1005E00094EA0C0F95EA0C0F00F0A7F8A4EB0504B1
:1005F00081EA030E52EA03354FEA013100F08880A8
:100600004FEA03334FF0805545EA131343EA126370
:100610004FEA022245EA111545EA10654FEA002625
:100620000EF000419D4208BF964244F1FD0404F5DE
:10063000407402D25B084FEA3202B61A65EB03053A
:100640005B084FEA32024FF480104FF4002CB6EBF7
:10065000020E75EB030E22BFB61A754640EA0C0077
:100660005B084FEA3202B6EB020E75EB030E22BFB7
:10067000B61A754640EA5C005B084FEA3202B6EBF8
:10068000020E75EB030E22BFB61A754640EA9C00B7
:100690005B084FEA3202B6EB020E75EB030E22BF87
:1006A000B61A754640EADC0055EA060E18D04FEA45
:1006B000051545EA16754FEA06164FEAC30343EAE5
:1006C00052734FEAC2025FEA1C1CC0D111F4801FB2
:1006D0000BD141EA00014FF000004FF0004CB6E7AB
:1006E00011F4801F04BF01430020B4F1FD0C88BF4A
:1006F000BCF5E06F3FF6AFAEB5EB030C04BFB6EB55
:10070000020C5FEA500C50F1000041EB045170BD47
:100710000EF0004E4EEA113114EB5C04C2BFD4EB74
:100720000C0541EA045170BD41F480114FF0000EF8
:10073000013C90E645EA060E8DE60CEA135594EA74
:100740000C0F08BF95EA0C0F3FF43BAF94EA0C0F77
:100750000AD150EA01347FF434AF95EA0C0F7FF4EC
:1007600025AF104619462CE795EA0C0F06D152EA40
:1007700003353FF4FDAE1046194622E750EA410624
:1007800018BF52EA43067FF4C5AE50EA41047FF435
:100790000DAF52EA43057FF4EBAE12E74FF0FF3C9A
:1007A00006E000BF4FF0010C02E000BF4FF0010C6B
:1007B0004DF804CD4FEA410C7FEA6C5C4FEA430CE4
:1007C00018BF7FEA6C5C1BD001B050EA410C0CBF33
:1007D00052EA430C91EA030F02BF90EA020F002095
:1007E000704710F1000F91EA030F58BF994208BFFC
:1007F00090422CBFD8176FEAE37040F001007047B9
:100800004FEA410C7FEA6C5C02D150EA013C07D10F
:100810004FEA430C7FEA6C5CD6D152EA033CD3D05A
:100820005DF8040B704700BF8446104662468C4654
:100830001946634600E000BF01B5FFF7B7FF002887
:1008400048BF10F1000F01BD4DF808EDFFF7F4FFB0
:100850000CBF012000205DF808FB00BF4DF808ED3B
:10086000FFF7EAFF34BF012000205DF808FB00BF5E
:100870004DF808EDFFF7E0FF94BF012000205DF880
:1008800008FB00BF4DF808EDFFF7CEFF94BF012035
:1008900000205DF808FB00BF4DF808EDFFF7C4FF2E
:1008A00034BF012000205DF808FB00BF4FEA410281
:1008B00012F5001215D211D56FF47873B3EB6252B2
:1008C00012D94FEAC12343F0004343EA505311F0D9
:1008D000004F23FA02F018BF404270474FF000006B
:1008E000704750EA013005D111F0004008BF6FF0A9
:1008F000004070474FF00000704700BF4A0011D21F
:1009000012F5001211D20DD56FF47873B3EB625269
:100910000ED44FEAC12343F0004343EA505323FA75
:1009200002F070474FF00000704750EA013002D1EA
:100930004FF0FF3070474FF0000070474FEA410220
:10094000B2F1E04324BFB3F5001CDCF1FE5C0DD92D
:1009500001F0004C4FEAC0024CEA5070B2F1004F77
:1009600040EB830008BF20F00100704711F0804F7A
:1009700021D113F13872BCBF01F00040704741F43F
:1009800080114FEA5252C2F11802C2F1200C10FA43
:100990000CF320FA02F018BF40F001004FEAC12327
:1009A0004FEAD32303FA0CFC40EA0C0023FA02F3CB
:1009B0004FEA4303CCE77FEA625307D150EA0133A1
:1009C0001EBF4FF0FE4040F44000704701F0004071
:1009D00040F0FE4040F40000704700BF53B94AB9F0
:1009E000002908BF00281CBF4FF0FF314FF0FF3037
:1009F00000F092B9ADF1080C6DE904CE00F024F8D6
:100A0000DDF804E0DDE9022304B07047D0B50C4BFB
:100A1000002206460F46FFF7AFFCFFF76FFF0446C4
:100A2000FFF730FC074B0022FFF7A6FC02460B46FF
:100A300030463946FFF7E8FAFFF760FF2146D0BDA0
:100A40000000F03D0000F0412DE9F047089D04460C
:100A50008E46002B4DD18A42944669D9B2FA82F271
:100A600052B101FA02F3C2F1200120FA01F10CFAAD
:100A700002FC41EA030E94404FEA1C48210CBEFBE5
:100A8000F8F61FFA8CF708FB16E341EA034306FB6E
:100A900007F199420AD91CEB030306F1FF3080F0FD
:100AA0001F81994240F21C81023E63445B1AA4B24A
:100AB000B3FBF8F008FB103344EA034400FB07F7EC
:100AC000A7420AD91CEB040400F1FF3380F00A812D
:100AD000A74240F207816444023840EA0640E41B22
:100AE00000261DB1D4400023C5E900433146BDE8CE
:100AF000F0878B4209D9002D00F0EF800026C5E970
:100B0000000130463146BDE8F087B3FA83F6002E87
:100B10004AD18B4202D3824200F2F980841A61EBFF
:100B2000030301209E46002DE0D0C5E9004EDDE71D
:100B300002B9FFDEB2FA82F2002A40F09280A1EB05
:100B40000C014FEA1C471FFA8CFE0126200CB1FB5A
:100B5000F7F307FB131140EA01410EFB03F0884253
:100B600008D91CEB010103F1FF3802D2884200F2E0
:100B7000CB804346091AA4B2B1FBF7F007FB101172
:100B800044EA01440EFB00FEA64508D91CEB040410
:100B900000F1FF3102D2A64500F2BB800846A4EB6B
:100BA0000E0440EA03409CE7C6F12007B34022FA56
:100BB00007FC4CEA030C20FA07F401FA06F31C4385
:100BC000F9404FEA1C4900FA06F3B1FBF9F8200C92
:100BD0001FFA8CFE09FB181140EA014108FB0EF0D8
:100BE000884202FA06F20BD91CEB010108F1FF3A28
:100BF00080F08880884240F28580A8F10208614434
:100C0000091AA4B2B1FBF9F009FB101144EA014141
:100C100000FB0EFE8E4508D91CEB010100F1FF34EC
:100C20006CD28E456AD90238614440EA0840A0FB84
:100C30000294A1EB0E01A142C846A64656D353D05A
:100C40005DB1B3EB080261EB0E0101FA07F722FA7E
:100C500006F3F1401F43C5E9007100263146BDE8A7
:100C6000F087C2F12003D8400CFA02FC21FA03F30A
:100C7000914001434FEA1C471FFA8CFEB3FBF7F08B
:100C800007FB10360B0C43EA064300FB0EF69E42B0
:100C900004FA02F408D91CEB030300F1FF382FD249
:100CA0009E422DD9023863449B1B89B2B3FBF7F6F1
:100CB00007FB163341EA034106FB0EF38B4208D9CA
:100CC0001CEB010106F1FF3816D28B4214D9023E0B
:100CD0006144C91A46EA004638E72E46284605E729
:100CE0000646E3E61846F8E64B45A9D2B9EB0208FA
:100CF00064EB0C0E0138A3E74646EAE7204694E78A
:100D00004046D1E7D0467BE7023B614432E73046BC
:100D100009E76444023842E7704700BFEC46A0E8A8
:100D2000F05F4FF000007047B0E8F05FE546080064
:100D300008BF0120704700BF000000000000000055
:100D400001F0FF01102A2BDB10F0070F08D010F87C
:100D5000013B013A8B422DD010F0070F42B3F6D180
:100D6000F0B441EA012141EA014122F007047FF099
:100D700000070023F0E80256083C85EA010586EAF0
:100D8000010685FA47F5A3FA87F586FA47F6A5FA2C
:100D900087F68EB9EED1F0BC01F0FF0102F0070238
:100DA00032B110F8013B013A83EA010313B1F8D1E3
:100DB0000020704701387047002D06BF35460338C4
:100DC000073815F0010F07D1013015F4807F02BFFD
:100DD000013015F4C03F0130F0BC0138704700BF4E
:100DE0004FEA410C7FEA6C5C02D150EA013C0AD127
:100DF0004FEA430C7FEA6C5C02D152EA033C02D119
:100E00004FF0000070474FF0010070477BB972B996
:100E10000029BEBF00204FF0004106E008BF0028B7
:100E20001CBF6FF000414FF0FF30FFF775BFADF111
:100E3000080C6DE904CE002909DB002B1ADBFFF753
:100E400003FEDDF804E0DDE9022304B07047404210
:100E500061EB4101002B1BDBFFF7F6FDDDF804E041
:100E6000DDE9022304B0404261EB4101524263EBF1
:100E700043037047524263EB4303FFF7E5FDDDF8A0
:100E800004E0DDE9022304B0404261EB4101704718
:100E9000524263EB4303FFF7D7FDDDF804E0DDE9E1
:100EA000022304B0524263EB4303704738B500227B
:100EB000002304460D46FFF7D1FC28B920462946F9
:100EC000BDE83840FFF7A2BD204605F10041FFF71D
:100ED0009DFD404261EB410138BD00BF08B50022D5
:100EE0000221024B186846F0FFF908BDB8AA002499
:100EF00008B500220121024B186846F0F5F908BD3B
:100F0000B8AA002408B5039902982DF06BF808BD23
:100F1000F0B585B0002204210A2046F035FF324AA0
:100F2000106038B300253DBB2FF0C0FF30F0B4FA9D
:100F30002E482F4BC36100222E4930F027FA2E494C
:100F40002E4837F0F9FC0369022B06D02A492B48BA
:100F500037F0F2FC0369032B02D100202FF05EFC76
:100F6000274902202FF0C8FD264830F009FA002456
:100F700026460BE00525D6E7234812F0EDF905B02B
:100F8000F0BD029C2B4600E001236BB14FF0FF3215
:100F9000154B196801A846F0DAF9019B102BF0D027
:100FA000402BF1D10223F0E714F0010F05D114F02A
:100FB000020FEBD030F04AFAE8E72FF0DFFE771CA3
:100FC000124BA3FB062323F0010202EB53039E42C4
:100FD00001D03E46EBE70E482FF0C4FDC0B22FF023
:100FE00065FD3E46E3E700BFB8AA0024BCAA002482
:100FF000050F0408FCC70C0810B209081CB2090848
:10100000F10E0408DD0E0408F8B10908ABAAAAAA7B
:1010100024B209082DE9F04FC9B08246D0F808B0D3
:10102000C36801930369029343690393836904933B
:10103000C3690593036A0693436A0793002205E098
:1010400051F8223008A840F8223001320F2AF7DD8B
:10105000102222E0931E08A951F823104FEAF14311
:1010600083EA714383EA9123D11F08A850F8211025
:101070000B44A2F10F0150F821004FEAB04181EA80
:10108000F01181EAD0010B44A2F1100108A850F838
:1010900021100B4440F8223001323F2ADADDDDF81E
:1010A0001CE0069E059F049ADDF80C80029C019DC1
:1010B000DC4600202FE04FEAF22383EAB21383EAF2
:1010C0007263734402EA070126EA020E81EA0E0106
:1010D0000B44234951F820100B4408A951F8201063
:1010E0000B444FEA7C3181EABC0181EABC5185EABC
:1010F000040E0EEA0C0E05EA04098EEA090E71448C
:101100000130B6463E46174608EB0302A0462C4681
:10111000654603EB010C3F28CDDD0CEB0B03CAF851
:101120000830019B1D44CAF80C50029B1C44CAF8AD
:101130001040039B4344CAF81430049B1A44CAF875
:101140001820059B1F44CAF81C70069B1E44CAF851
:101150002060079B7344CAF8243049B0BDE8F08F83
:10116000C0B2090884B08DE80F009DF85830032BF9
:101170000AD09DF85B30013B062B43D8DFE803F033
:10118000304734373A3D3F009DF85930033B0E2B32
:1011900024D8DFE803F01D1423111A20390B23088B
:1011A000232318160E004FF480301BE04FF440301C
:1011B00018E04FF0017015E04FF0417012E0154853
:1011C00010E015480EE015480CE04FF4A02009E0AF
:1011D0004FF4C02006E04FF4E02003E0002001E0DF
:1011E0004FF4803004B070474FF4E020FAE74FF43A
:1011F0000030F7E74FF44030F4E70648F2E74FF4E9
:10120000C020EFE70020EDE74FF40030EAE74FF4AD
:10121000A020E7E700000404000004050000040625
:101220002DE9F04FC1B000910193DDF828919DF8B0
:101230002CA1DDF83081002800F009821746834692
:10124000007810F0010002D141B0BDE8F08F9BF8AA
:1012500001200C460B4603F8012BDBE90201CDE926
:1012600024012498C4F80100BDF894209A80DBF88A
:101270000830DBF80C20013342F10002CBF80830D3
:10128000CBF80C200023269327939D4B28939D4B4E
:1012900029939D4B2A939D4B2B939D4B2C939D4BB8
:1012A0002D939D4B2E9303F17453A3F52303A3F6C3
:1012B00092432F930BF1100B4FF48073269300256C
:1012C00020260AE02246594630AB58193EF00EFA65
:1012D0002544A344361B402D06D006B3C5F1400477
:1012E000B442EFD93446EDE700230F2B11DC30A8D0
:1012F00000EB830112AC04EB8302CD7804F8235099
:101300008C7854704978917010F82310D1700133A3
:10131000EBE712A926A8FFF77DFE0025DDE7019B7C
:101320009B46269D05EBC30326939D4202D9279B2E
:1013300001332793C5F3C5050BE02246394630AB90
:1013400058193EF0D3F925442744ABEB040B402D4C
:1013500021D0BBF1000F20D0C5F140045C45ECD991
:101360005C46EAE730A800EB830112AC04EB830291
:10137000CD7804F823508C7854704978917010F827
:101380002310D17001330F2BECDD12A926A8FFF733
:1013900041FE3546DDE70023F5E75446269E06EB81
:1013A000CA0326939E4202D9279B01332793C6F393
:1013B000C5060AE02A46494630AB98193EF096F930
:1013C0002E44A944641B402E06D004B3C6F1400548
:1013D000A542EFD92546EDE700230F2B11DC30A8FD
:1013E00000EB830112AD05EB8302CE7805F8236094
:1013F0008D7855704978917010F82310D1700133B1
:10140000EBE712A926A8FFF705FE5E46DDE7269F5B
:1014100007F1100326939F4202D9279B013327939C
:10142000C7F3C50702250AE03246414630ABD8195A
:101430003EF05CF93744B044AD1B402F06D005B3F5
:10144000C7F14006AE42EFD92E46EDE700230F2B41
:1014500011DC30A800EB830112AE06EB8302CF78DB
:1014600006F823708E7856704978917010F8231022
:10147000D1700133EBE712A926A8FFF7CBFD274671
:10148000DDE7269B03F138022692934202D9279A80
:1014900001322792C3F3C508009E07240CE03A46A8
:1014A000314630AB03EB08003EF020F9B8443E442F
:1014B000E41BB8F1400F06D084B3C8F14007A7423F
:1014C000EDD92746EBE700230F2B12DC30A800EB09
:1014D000830112AF07EB830291F803C007F823C022
:1014E0008F7857704978917010F82310D1700133BC
:1014F000EAE712A926A8FFF78DFDA846DCE700BFA2
:1015000067E6096A85AE67BB72F36E3C3AF54FA594
:101510007F520E518C68059BABD9831F009BDF1D4A
:10152000269BDD08C5F1770505F03F0580238DF882
:101530004830472200210DF149003EF097F8269BE4
:1015400005F584726A4402F8B83C190A05F20712DC
:101550006A4402F8B81C190C05F583726A4402F853
:10156000B81C190E05F205126A4402F8B81C279A35
:1015700005F58271694401F8B82C100A05F20311CF
:10158000694401F8B80C100C05F58171694401F843
:10159000B80C120E05F201110DEB010606F8B82C7D
:1015A000093503EBC5022692934202D9279A0132EC
:1015B0002792C3F3C50912AE0DE04246314630AB67
:1015C00003EB09003EF092F8C1444644A5EB080540
:1015D000B9F1400F24D02DB3C9F14008A845ECD98A
:1015E000A846EAE730A800EB830102AA02EB8302D7
:1015F00091F803C00DF1080E0EF823C091F802C057
:1016000082F801C04978917010F82310D17001332D
:101610000F2BE7DD02A926A8FFF7FCFCA146DAE7BD
:101620000023F5E79DF8A330009AD3719DF8A2300E
:101630007B709DF8A130BB709DF8A030FB709DF8C9
:10164000A7303B719DF8A6307B710D20FCE5002092
:10165000FAE500BFB14B1B7E0BB9002070472DE9A6
:10166000F04FB5B0044627A9AC482EF053FF0490C4
:1016700018B1002035B0BDE8F08F2798FEF702FEC4
:101680000022A74BFEF778FEFFF7C0F9CDE91A015B
:10169000DDF8A4B0CDF870B0DDF8A0A0CDF874A04E
:1016A0002A9D1E952B98FEF70FFE00229C4BFEF7FD
:1016B00063FE80468946FFF721F9ADF87C002C983F
:1016C000FEF702FE0022964BFEF756FE06460F4638
:1016D000FFF714F9ADF87E003098FEF7F5FD002213
:1016E000904BFEF749FEFFF709F9ADF880003198FD
:1016F000FEF7EAFD00228B4BFEF73EFEFFF7FEF8F9
:10170000ADF882009DF8CC308DF884309DF8CD3056
:101710008DF88530CDF8865040464946FFF7EEF803
:10172000CDF88A0030463946FFF7E8F8CDF88E004C
:101730003298FEF7C9FD0022794BFEF71DFEFFF738
:10174000DDF8CDF892000023ADF89630ADF8983072
:10175000ADF89A30744A11780591527806929DF846
:1017600084E0BDF87C200792BDF87E100891BDF89A
:101770008090BDF882809DF885C0DDF88670DDF828
:101780008A60DDF88E000990DDF89210DDF8962071
:101790001A980D901B980E90CDF83CB0CDF840A053
:1017A0001195079DADF84850089DADF84A50ADF829
:1017B0004C90ADF84E808DF850E08DF851C0CDF8CA
:1017C0005270CDF856600998CDF85A00CDF85E10E9
:1017D000CDF86220ADF866300DAF04F10C060DF1C6
:1017E000640C3D460FCD30607160B260F3602F46EF
:1017F00010366545F5D128683060002318226272E2
:10180000A372E372494B1D7B15F0020507D11B69DA
:101810002BB11B7813F0010F01D001230493049B1B
:1018200003F001003DB1FE23A37006238DB904F13E
:101830000C06342205E0FD23A3700A23F6E7013AE3
:10184000D2B2012A06D9B11811F8011C0029F6D02C
:1018500000E01E22E270059AE271069A22720022CE
:10186000227108B101222271002262712F498A7906
:10187000A27101328A71A2788DF82820E2788DF861
:10188000292095B1A2798DF82A20E2798DF82B20B4
:10189000227A8DF82C20627A8DF82D20591E89B27B
:1018A0004FF6FF720DF129052FE022798DF82A20DD
:1018B00062798DF82B20A2798DF82C20E2798DF8B1
:1018C0002D20227A8DF82E20627AA17A42EA012216
:1018D000E17A42EA01428DF82F2011128DF8301082
:1018E00012148DF83120D9E715F8011BD7B27940D1
:1018F00081EA0111C9B2120A42EA012212B282EA55
:10190000C10282EA111292B231464E1EB6B20029CD
:10191000EAD104F10C07E1783D461CE098720024FE
:1019200000408F40000059404CAB0024ECAA00243A
:1019300015F8011B5FFA82FC81EA0C0181EA0111B2
:10194000C9B2120A82EA012212B282EAC10282EA12
:10195000111292B231464E1EB6B20029E8D1D1B270
:1019600081F0180181EA0111C9B2120A82EA01224A
:1019700012B282EAC10282EA1112E1787A54E17865
:101980000131C2F307257D54228008B9012071E698
:10199000E278B9180291019200970AAA04F58B71B6
:1019A00002480069FFF73CFCF0E700BFECAA002406
:1019B00070B590B004463AF057FDCDE90C013AF00D
:1019C00059FD0E906F4B93F800C05E78DDE90C2353
:1019D000CDE908230A9008AB07CBE0602161626182
:1019E000002302226272A372E372674B1D7B1540D3
:1019F00007D11B697BB11B7813F0010F0DD10020BB
:101A000000E000205DB1FE23A3700623B5B904F108
:101A10000C0E0C2209E00020F4E70120F2E7FD2380
:101A2000A3700A23F2E7013AD2B2012A07D90EEBDA
:101A3000020111F8011C0029F5D000E00C22E2702F
:101A400084F807C026720022227108B10122227197
:101A5000002262714C498A79A27101328A71A2789E
:101A60008DF81420E2788DF8152095B1A2798DF8C3
:101A70001620E2798DF81720227A8DF81820627AE4
:101A80008DF81920591E89B24FF6FF720DF1150518
:101A90002FE022798DF8162062798DF81720A2792F
:101AA0008DF81820E2798DF81920227A8DF81A2005
:101AB000627AA17A42EA0122E17A42EA01428DF891
:101AC0001B2011128DF81C1012148DF81D20D9E75F
:101AD00015F8011BD6B2714081EA0111C9B2120A90
:101AE00042EA012212B282EAC10282EA111292B2E1
:101AF000614601F1FF3C1FFA8CFC0029E8D104F19A
:101B00000C05E178AC4610E01CF8011BD6B2714020
:101B100081EA0111C9B2120A82EA012212B282EAF2
:101B2000C10282EA111292B2714601F1FF3E1FFA20
:101B30008EFE0029E8D1D1B281F0890181EA01113C
:101B4000C9B2120A82EA012212B282EAC10282EA10
:101B50001112E1786A54E1780131C2F307266E541C
:101B6000228010B9012010B070BDE278A91802914E
:101B70000192009505AA04F58B7103480069FFF7EF
:101B80004FFBEFE74CAB0024ECAA00242DE9F04713
:101B900098B0844601231093119312934FF6FF726D
:101BA000ADF850208DF85E2097490E784D78BDF83D
:101BB0004CA0BDF84E90BDF85280BDF85470BDF8F1
:101BC00056E0BDF85840BDF85A00BDF85C100893C7
:101BD00009930A93ADF82CA0ADF82E90ADF8302003
:101BE000ADF83280ADF83470ADF836E0ADF838407D
:101BF000ADF83A00ADF83C108DF83E2008AC0FCCA3
:101C0000CCF80C00CCF81010CCF81420CCF818301C
:101C100007CCCCF81C00CCF82010CCF8242022886B
:101C2000A378ACF828208CF82A30002301228CF805
:101C300009208CF80A308CF80B30744B1C7B14F0A4
:101C4000020407D11B6983B11B7813F0010F0ED179
:101C5000002000E0002064B1FE238CF8023006234F
:101C6000BCB90CF10C0E1F220AE00020F3E70120A2
:101C7000F1E7FD238CF802300A23F1E7013AD2B2F2
:101C8000012A07D90EEB020111F8011C0029F5D039
:101C900000E01F228CF803208CF807608CF80850B5
:101CA00000228CF8042010B101228CF804200022BC
:101CB0008CF8052055498A798CF8062001328A7102
:101CC0009CF802208DF814209CF803208DF8152034
:101CD000B4B19CF806208DF816209CF807208DF8EA
:101CE00017209CF808208DF818209CF809208DF802
:101CF0001920591E89B24FF6FF720DF1150437E015
:101D00009CF804208DF816209CF805208DF81720EB
:101D10009CF806208DF818209CF807208DF81920D3
:101D20009CF808208DF81A209CF809209CF80A10CD
:101D300042EA01229CF80B1042EA01428DF81B2076
:101D400011128DF81C1012148DF81D20D1E714F813
:101D5000011BD6B2714081EA0111C9B2120A42EAEE
:101D6000012212B282EAC10282EA111292B229461B
:101D70004D1EADB20029EAD10CF10C059CF8031000
:101D8000AE4610E01EF8011BD6B2714081EA011187
:101D9000C9B2120A82EA012212B282EAC10282EABE
:101DA000111292B221464C1EA4B20029EAD1D1B23E
:101DB00081F07C0181EA0111C9B2120A82EA012292
:101DC00012B282EAC10282EA11129CF803106A542C
:101DD0009CF803100131C2F307246C54ACF80020C6
:101DE00018B9012018B0BDE8F0879CF80320A918A5
:101DF00002910192009505AA0CF58B7103480069C8
:101E0000FFF70EFAEDE700BF4CAB0024ECAA00246C
:101E100070B5B6B0044602238DF8D0300C238DF88F
:101E2000D13001238DF8D2300023339303238DF872
:101E3000D3308C4B18682EF027FB80BB8A4B93F86D
:101E400000E093F801C09DF8D0009DF8D1109DF8F6
:101E5000D2209DF8D330339D18958DF864008DF80D
:101E600065108DF866208DF8673003238DF8683093
:101E700018AB03CBE06021611B78237500236372EC
:101E8000A372E372794B1D7B15F0020528D11B6903
:101E900083B31B7813F0010F2ED1002021E01BAA81
:101EA000704B196872482EF003FB9DF8C430023B5A
:101EB000DBB2012B0AD950221FA968463DF016FC5F
:101EC0001BAB0FCBFFF74EF93390B7E79DF8D2303D
:101ED00063F07F038DF8D23004238DF8D330EAE726
:101EE00000205DB1FE23A3700623ADB904F10C06FA
:101EF000092209E00020F4E70120F2E7FD23A370A6
:101F00000A23F2E7013AD2B2012A06D9B11811F830
:101F1000011C0029F6D000E00922E27084F807E0F5
:101F200084F808C00022227108B101222271002227
:101F300062714E498A79A27101328A71A2788DF854
:101F40005420E2788DF8552095B1A2798DF856206D
:101F5000E2798DF85720227A8DF85820627A8DF830
:101F60005920591E89B24FF6FF720DF155052FE029
:101F700022798DF8562062798DF85720A2798DF854
:101F80005820E2798DF85920227A8DF85A20627A09
:101F9000A17A42EA0122E17A42EA01428DF85B200D
:101FA00011128DF85C1012148DF85D20D9E715F828
:101FB000011BD6B2714081EA0111C9B2120A42EA8C
:101FC000012212B282EAC10282EA111292B2614681
:101FD00001F1FF3C1FFA8CFC0029E8D104F10C054B
:101FE000E178AC4610E01CF8011BD6B2714081EAE2
:101FF0000111C9B2120A82EA012212B282EAC102B6
:1020000082EA111292B2714601F1FF3E1FFA8EFE72
:102010000029E8D1D1B281F0320181EA0111C9B2BF
:10202000120A82EA012212B282EAC10282EA111283
:10203000E1786A54E1780131C2F307266E542280B8
:1020400010B9012036B070BDE278A9180291019252
:10205000009515AA04F58B7104480069FFF7E0F8B4
:10206000EFE700BFE8AA00244CAB0024ECAA002450
:10207000E81B002470B5A2B0044600238DF884301C
:102080008DF8853009A981482EF044FA002840F0E7
:10209000FA8002469DF87C30013BDBB2012B09D966
:1020A0009DF87D30112B33D00F2B35D002238DF8C6
:1020B000853002E001238DF88530754B93F800C020
:1020C00093F801E09DF8851000238DF814308DF809
:1020D0001510BDF81410A1816FF00A016172A3728E
:1020E000E3726C4B1D7B15F0020506D11B6923B111
:1020F0001B7813F0010F00D0012202F001007DB126
:10210000FE23A3700623CDB904F10C0602220DE0D4
:1021100003238DF88530D0E704238DF88530CCE794
:10212000FD23A3700A23EEE7013AD2B2012A06D9B1
:10213000B11811F8011C0029F6D000E00222E2706B
:1021400084F807C084F808E00022227108B1012257
:102150002271002262714F498A79A27101328A711B
:10216000A2788DF81820E2788DF8192095B1A2791F
:102170008DF81A20E2798DF81B20227A8DF81C2028
:10218000627A8DF81D20591E89B24FF6FF720DF14B
:1021900019052FE022798DF81A2062798DF81B201D
:1021A000A2798DF81C20E2798DF81D20227A8DF815
:1021B0001E20627AA17A42EA0122E17A42EA0142D1
:1021C0008DF81F2011128DF8201012148DF8212087
:1021D000D9E715F8011BD6B2714081EA0111C9B2E5
:1021E000120A42EA012212B282EAC10282EA111202
:1021F00092B2614601F1FF3C1FFA8CFC0029E8D144
:1022000004F10C05E178AC4610E01CF8011BD6B2D5
:10221000714081EA0111C9B2120A82EA012212B2A6
:1022200082EAC10282EA111292B2714601F1FF3EC6
:102230001FFA8EFE0029E8D1D1B281F0820181EA35
:102240000111C9B2120A82EA012212B282EAC10263
:1022500082EA1112E1786A54E1780131C2F307266B
:102260006E54228010B9012022B070BDE278A91806
:1022700002910192009506AA04F58B710548006948
:10228000FEF7CEFFEFE70020EEE700BFE81B0024DB
:102290004CAB0024ECAA00242DE9F04FB5B0044665
:1022A00010A9B9482EF036F9002840F061810646A1
:1022B000DDED137AF5EEC07AF1EE10FA00F1A180AF
:1022C0009FEDB27A27EE877ADFEDB16AC7EE267A04
:1022D0009FEDB07A67EE877AFCEEE77A17EE903AD8
:1022E0009DB2AD4B93F800B093F801A03AF0C2F85C
:1022F00081460022A94BDDE92201FEF73DF89EA3AD
:10230000D3E90023FEF762F99DA3D3E90023FEF78A
:1023100033F8FEF7CBFA80460022A04BDDE924011A
:10232000FEF72AF894A3D3E90023FEF74FF994A30C
:10233000D3E90023FEF720F8FEF7B8FA074600229B
:10234000974BDDE92601FEF717F8FEF7AFFA059087
:102350003098FDF7B9FF0022914BFEF70DF8FEF71C
:10236000A5FAF2EE046A9DED1E7A27EE267AFDEEBE
:10237000C77A17EE903A9DED1F7A27EE267ABDEECA
:10238000C77ADDED207A67EEA67AFDEEE77ACDF822
:102390002490CDF828800B97059A0C920D90ADF8FB
:1023A000383017EE103AADF83A3017EE903AADF8F3
:1023B0003C30ADF83E5009AD0FCDE0602161626167
:1023C000A36107CDE0612162626200232122627273
:1023D000A372E372734B187B10F0020006D11B69E5
:1023E00023B11B7813F0010F00D0012606F001067F
:1023F00060B1FE23A3700623B0B904F10C051C22C2
:102400000AE09FED697A77EE877A59E7FD23A3709A
:102410000A23F1E7013AD2B2012A06D9A91811F824
:10242000011C0029F6D000E01C22E27084F807B0FD
:1024300084F808A0002222710EB10122227100222C
:10244000627158498A79A27101328A71A2788DF835
:102450001820E2788DF8192090B1A2798DF81A2011
:10246000E2798DF81B20227A8DF81C20627A8DF893
:102470001D20591E89B24FF6FF720DF119002FE091
:1024800022798DF81A2062798DF81B20A2798DF8B7
:102490001C20E2798DF81D20227A8DF81E20627AA8
:1024A000A17A42EA0122E17A42EA01428DF81F2034
:1024B00011128DF8201012148DF82120D9E710F890
:1024C000011BD7B2794081EA0111C9B2120A42EA6E
:1024D000012212B282EAC10282EA111292B22946A4
:1024E0004D1EADB20029EAD104F10C07E17838465F
:1024F00012E010F8011B5FFA82FC81EA0C0181EA0C
:102500000111C9B2120A82EA012212B282EAC102A0
:1025100082EA111292B229464D1EADB20029E8D1CD
:10252000D1B281F0680181EA0111C9B2120A82EACE
:10253000012212B282EAC10282EA1112E1787A54CF
:10254000E1780131C2F30720785422801EB90120BE
:1025500035B0BDE8F08FE278B9180291019200978A
:1025600006AA04F58B710F480069FEF759FEEEE7E5
:102570000020EDE7AFF3008000000060FB21094080
:1025800000000000D01263413025002400003443D5
:10259000DB0F49400000C8424CAB0024008066407D
:1025A00000408F40ECAA0024DB0FC9402DE9F04128
:1025B000B2B004460EA97B482DF0ACFF18B1002044
:1025C00032B0BDE8F0818046774B1F785E7839F0F5
:1025D00051FFDDED2E7AF1EE677A07902C9B089380
:1025E0002D9B0993CDED0A7A1C9B0B931D9B0C939D
:1025F0001E9B0D9307AD0FCDE06021616261A36169
:1026000007CDE06121626262002320226272A37220
:10261000E372664B1D7B15F0020507D11B692BB1D8
:102620001B7813F0010F01D04FF0010808F00100F2
:102630003DB1FE23A370062395B904F10C0C1C22B6
:1026400005E0FD23A3700A23F6E7013AD2B2012A7E
:1026500007D90CEB020111F8011C0029F5D000E0AC
:102660001C22E270E77126720022227108B1012259
:102670002271002262714D498A79A27101328A71F8
:10268000A2788DF81020E2788DF8112095B1A2790A
:102690008DF81220E2798DF81320227A8DF814201B
:1026A000627A8DF81520591E89B24FF6FF720DF12E
:1026B00011052FE022798DF8122062798DF8132010
:1026C000A2798DF81420E2798DF81520227A8DF800
:1026D0001620627AA17A42EA0122E17A42EA0142B4
:1026E0008DF8172011128DF8181012148DF819207A
:1026F000D9E715F8011BD6B2714081EA0111C9B2C0
:10270000120A42EA012212B282EAC10282EA1112DC
:1027100092B2614601F1FF3C1FFA8CFC0029E8D11E
:1027200004F10C05E178AC4610E01CF8011BD6B2B0
:10273000714081EA0111C9B2120A82EA012212B281
:1027400082EAC10282EA111292B2714601F1FF3EA1
:102750001FFA8EFE0029E8D1D1B281F0B90181EAD9
:102760000111C9B2120A82EA012212B282EAC1023E
:1027700082EA1112E1786A54E1780131C2F3072646
:102780006E54228008B901201AE7E278A918029154
:102790000192009504AA04F58B7104480069FEF7C4
:1027A0003FFDF0E7302500244CAB0024ECAA0024C8
:1027B00070B5BAB004460EA97F482DF0ABFE10B13B
:1027C00000203AB070BD86469DED0F7A8DED347ACB
:1027D000DDED107ACDED357A119D3695169937914C
:1027E000179A3892189B3993744890F800C046782D
:1027F000339807908DED087ACDED097A0A950B9103
:102800000C920D9307AD0FCDE06021616261A36171
:1028100007CDE0612162626200231E226272A37210
:10282000E372674B1D7B15F0020507D11B692BB1C5
:102830001B7813F0010F01D04FF0010E0EF00100D4
:102840003DB1FE23A370062395B904F10C0E1C22A2
:1028500005E0FD23A3700A23F6E7013AD2B2012A6C
:1028600007D90EEB020111F8011C0029F5D000E098
:102870001C22E27084F807C026720022227108B17F
:1028800001222271002262714D498A79A2710132BE
:102890008A71A2788DF81020E2788DF8112095B118
:1028A000A2798DF81220E2798DF81320227A8DF822
:1028B0001420627A8DF81520591E89B24FF6FF72E6
:1028C0000DF111052FE022798DF8122062798DF833
:1028D0001320A2798DF81420E2798DF81520227A40
:1028E0008DF81620627AA17A42EA0122E17A42EA60
:1028F00001428DF8172011128DF8181012148DF85E
:102900001920D9E715F8011BD6B2714081EA0111EF
:10291000C9B2120A42EA012212B282EAC10282EA72
:10292000111292B2614601F1FF3C1FFA8CFC0029A2
:10293000E8D104F10C05E178AC4610E01CF8011B6D
:10294000D6B2714081EA0111C9B2120A82EA0122AB
:1029500012B282EAC10282EA111292B2714601F108
:10296000FF3E1FFA8EFE0029E8D1D1B281F0270187
:1029700081EA0111C9B2120A82EA012212B282EA84
:10298000C10282EA1112E1786A54E1780131C2F39E
:1029900007266E54228008B9012012E7E278A918B0
:1029A00002910192009504AA04F58B710448006914
:1029B000FEF736FCF0E700BF302500244CAB0024C6
:1029C000ECAA00242DE9F043B1B004460CA98F48CD
:1029D0002DF0A0FD18B1002031B0BDE8F083804695
:1029E0009DED1A0A20EE000ADDED1B7A67EEA77A4C
:1029F00030EE270A55F07CF810EE109ADDED0F7AD4
:102A0000F5EEC07AF1EE10FA4AD49FED817A67EEC6
:102A1000877ADFED806A87EEA67AFDEEC77A17EE39
:102A2000903A1FB27C4B1E785D78DDE92201FDF7FC
:102A300085FFDDED1C7AF1EE677A1D9B0793CDF8DB
:102A400020900990CDED0A7AADF82C700027ADF8F2
:102A50002E700DF11C0CBCE80F00E060216162617A
:102A6000A361DCF80000E0614A236372A772E77299
:102A70006A4B1F7B17F0020707D11B692BB11B782C
:102A800013F0010F01D04FF0010808F0010067B109
:102A9000FE23A3700623BFB904F10C0C14220AE034
:102AA0009FED5F7A77EE877AAFE7FD23A3700A2365
:102AB000F1E7013AD2B2012A07D90CEB020111F871
:102AC000011C0029F5D000E01422E270E6712572A5
:102AD0000022227108B101222271002262714F4945
:102AE0008A79A27101328A71A2788DF81020E27879
:102AF0008DF8112097B1A2798DF81220E2798DF826
:102B00001320227A8DF81420627A8DF81520591E30
:102B100089B24FF6FF720DF111052FE022798DF881
:102B2000122062798DF81320A2798DF81420E279B1
:102B30008DF81520227A8DF81620627AA17A42EA61
:102B40000122E17A42EA01428DF8172011128DF834
:102B5000181012148DF81920D9E715F8011BD6B2F8
:102B6000714081EA0111C9B2120A42EA012212B28D
:102B700082EAC10282EA111292B2614601F1FF3C7F
:102B80001FFA8CFC0029E8D104F10C05E178AC4671
:102B900010E01CF8011BD6B2714081EA0111C9B2E4
:102BA000120A82EA012212B282EAC10282EA1112F8
:102BB00092B2714601F1FF3E1FFA8EFE0029E8D164
:102BC000D1B281F0140181EA0111C9B2120A82EA7C
:102BD000012212B282EAC10282EA1112E1786A5439
:102BE000E1780131C2F307266E54228008B9012032
:102BF000F2E6E278A91802910192009504AA04F580
:102C00008B7106480069FEF70BFBF0E730250024C6
:102C100000003443DB0F49404CAB0024ECAA0024F5
:102C2000DB0FC9402DE9F041B8B0044614A9814832
:102C30002DF070FC18B1002038B0BDE8F08110A96B
:102C40007D482DF067FC804608B10020F4E77B4BFF
:102C50001F785E7839F00EFCFDF714FB0022784BEC
:102C6000FDF78AFBFDF7D2FE139A349BCDE90801EC
:102C70000A920B920C930D93359B0E9300230F93A6
:102C800008AD0FCDE06021616261A3610FCDE0610D
:102C900021626262A36200236FF072026272A37209
:102CA000E372684B1D7B15F0020507D11B692BB140
:102CB0001B7813F0010F01D04FF0010808F001005C
:102CC0003DB1FE23A370062395B904F10C0C20221C
:102CD00005E0FD23A3700A23F6E7013AD2B2012AE8
:102CE00007D90CEB020111F8011C0029F5D000E016
:102CF0002022E270E77126720022227108B10122BF
:102D00002271002262714F498A79A27101328A715F
:102D1000A2788DF81420E2788DF8152095B1A2796B
:102D20008DF81620E2798DF81720227A8DF8182078
:102D3000627A8DF81920591E89B24FF6FF720DF193
:102D400015052FE022798DF8162062798DF817206D
:102D5000A2798DF81820E2798DF81920227A8DF861
:102D60001A20627AA17A42EA0122E17A42EA014219
:102D70008DF81B2011128DF81C1012148DF81D20D7
:102D8000D9E715F8011BD6B2714081EA0111C9B229
:102D9000120A42EA012212B282EAC10282EA111246
:102DA00092B2614601F1FF3C1FFA8CFC0029E8D188
:102DB00004F10C05E178AC4610E01CF8011BD6B21A
:102DC000714081EA0111C9B2120A82EA012212B2EB
:102DD00082EAC10282EA111292B2714601F1FF3E0B
:102DE0001FFA8EFE0029E8D1D1B281F02F0181EACD
:102DF0000111C9B2120A82EA012212B282EAC102A8
:102E000082EA1112E1786A54E1780131C2F30726AF
:102E10006E54228008B901200EE7E278A9180291C9
:102E20000192009505AA04F58B7106480069FEF72A
:102E3000F7F9F0E730250024687200244CAB002439
:102E400000408F40ECAA0024BD4B1B7E0BB9002034
:102E500070472DE9F04FB3B080462AA9B8482DF04D
:102E600059FB059018B1002033B0BDE8F08F39F060
:102E700001FB06461F9010238DF8A43028238DF8FF
:102E8000A53020AC2AAD0FCD0FC495E80F0084E823
:102E90000F00AC4B1A7806925B7807939DF8A4302C
:102EA0000893BDF880B0BDF882A0BDF88490BDF84D
:102EB00086100991BDF88870BDF88A000A90BDF8A7
:102EC0008C50BDF88E400B94BDF890300C93BDF83B
:102ED00092200D92BDF894100E91BDF896000F90BF
:102EE000BDF89840BDF89AE0BDF89CC0BDF89E00C2
:102EF000BDF8A010BDF8A2209DF8A5301496ADF83D
:102F000054B0ADF856A0ADF85890099EADF85A608F
:102F1000ADF85C700A9EADF85E60ADF860500B9D38
:102F2000ADF862500C9DADF864500D9DADF8665043
:102F30000E9DADF868500F9DADF86A50ADF86C402D
:102F4000ADF86EE0ADF870C0ADF87200ADF8741079
:102F5000ADF87620089A8DF878208DF8793014AE87
:102F600008F10C041CAF35460FCD20606160A260F3
:102F7000E3602E461034BD42F5D103CE206061607F
:102F8000338823810023412288F8092088F80A30F9
:102F900088F80B306C4B1C7B14F0020407D11B69C2
:102FA0002BB11B7813F0010F01D001230593059B72
:102FB00003F0010044B1FE2388F80230062394B9DF
:102FC00008F10C052A2206E0FD2388F802300A23C6
:102FD000F5E7013AD2B2012A06D9A91811F8011C65
:102FE0000029F6D000E02A2288F80320069A88F803
:102FF0000720079A88F80820002288F8042010B1DA
:10300000012288F80420002288F805204E498A7998
:1030100088F8062001328A7198F802208DF8442041
:1030200098F803208DF84520B4B198F806208DF863
:10303000462098F807208DF8472098F808208DF84A
:10304000482098F809208DF84920591E89B24FF67A
:10305000FF720DF1450437E098F804208DF8462002
:1030600098F805208DF8472098F806208DF848201C
:1030700098F807208DF8492098F808208DF84A2004
:1030800098F8092098F80A1042EA012298F80B10E3
:1030900042EA01428DF84B2011128DF84C101214A7
:1030A0008DF84D20D1E714F8011BD6B2714081EAAA
:1030B0000111C9B2120A42EA012212B282EAC10225
:1030C00082EA111292B229464D1EADB20029EAD110
:1030D00008F10C0698F80310344610E014F8011BB0
:1030E000D7B2794081EA0111C9B2120A82EA0122FB
:1030F00012B282EAC10282EA111292B229464D1E30
:10310000ADB20029EAD1D1B281F0760181EA011194
:10311000C9B2120A82EA012212B282EAC10282EA2A
:10312000111298F80310725498F803100131C2F389
:1031300007247454A8F8002040B9012094E600BF89
:10314000787500244CAB0024ECAA002498F80320E6
:10315000B11802910192009611AA08F58B710248EC
:103160000069FEF75DF8E8E7ECAA002400B583B03B
:10317000002211462F482DF035FA2F4B18600028F9
:103180004ED031F029FD2D4B188001232C4A4FF4ED
:103190007A71002031F0BAFB01232A4A4FF47A7188
:1031A000184631F0B3FB0123274A4FF47A7102200D
:1031B00031F0ACFB0123254A4FF47A71F52031F050
:1031C000A5FB0123224A64211E2031F09FFB01232D
:1031D000204A6421202031F099FB01231E4A6421FA
:1031E000212031F093FB01231C4AC8214A2031F0F1
:1031F0008DFB01231A4A64218D2031F087FB0123C6
:10320000184A6421182031F081FB0123164A6421F9
:10321000412031F07BFB31F005FD03B05DF804FB8C
:1032200040F24D130093114B114A1249124810F00D
:1032300093F8FEE7E81B0024E8AA00244CAB002426
:10324000111E04088D1B0408B11904087520040818
:10325000B1270408AD25040899220408C5290408EB
:10326000252C040855160408492E040828B209081C
:10327000B0B209085CB2090870B2090830B583B071
:1032800011F084FE43F0DBFE019012E00E4B1D684E
:10329000651B36F091FE0D4B1A6821460C4839F03B
:1032A000D7F810B1284611F099FC012101A844F08B
:1032B000B1F839F0DFF80446034B1B68002BE5D169
:1032C000014B1860E2E700BF58AB002460D2002435
:1032D00050AB002410B582B00EF094FE44F052F9C9
:1032E0004FF48064009405230022104910483CF0FC
:1032F0007FFB104B18600094032300220E490F48F7
:103300003CF076FB0E4B18600094012300220D491F
:103310000D483CF06DFB0D4B18600D4B186845F0E7
:103320009DFB44F051F902B010BD00BF7D3204088E
:10333000C0B3090864AB0024110F0408C8B309081E
:103340005CAB00246D310408D0B3090860AB0024E5
:10335000903F012400B583B0009313460A4601460E
:1033600001480FF0F9FFFEE770B2090808B598B1FF
:103370000246EFF311814FF0500383F31188BFF33E
:103380006F8FBFF34F8F0346002043F8040B936009
:10339000536081F3118808BD0F23024A0249034894
:1033A000FFF7D8FFD8B30908A0B4090818B4090872
:1033B0002DE9F04100283ED00F4606463CF00CFCBB
:1033C0000446EFF311854FF0500383F31188BFF3E8
:1033D0006F8FBFF34F8FA8463368012B3DD0331D4D
:1033E000726893422DD1002F39D0EFF3058212F08D
:1033F000FF0F2CD10022826300F12402B1680A6021
:10340000B1688162B26043623CF03FFB85F3118892
:103410003CF061FBA06BEFF311884FF0500383F396
:103420001188BFF36F8FBFF34F8F0023336088F392
:103430001188BDE8F0812D230A4A0B490B48FFF79C
:1034400089FF3523074A08490948FFF783FF0649E2
:1034500008480FF081FF0020E9E70020E5E76FF062
:103460000100E4E7D8B3090890B4090818B40908C2
:103470002CB4090858B4090808B5D8B10268012A63
:1034800017D0EFF3118C4FF0500282F31188BFF385
:103490006F8FBFF34F8F0246012142F8041B406833
:1034A00082420DD024388CF311883CF0F6FA3CF0BF
:1034B00012FB08BD7423044A04490548FFF74AFF7C
:1034C0008CF31188F5E700BFD8B3090880B4090868
:1034D00018B4090800B583B0009313460A460146A4
:1034E00001480FF039FFFEE770B2090870B50646D3
:1034F000D8B1104B1B68D3B144F044F80E4B1C6894
:103500000D4B9C420CD0A4F11405142231462846E0
:103510003CF080F908B12468F2E744F055F802E085
:1035200044F052F80025284670BD0546FBE700250B
:10353000F9E700BF68AB0024A800002420B370B5F1
:103540000C46154606460846FFF7D0FF08B1012095
:1035500070BD1422214630463CF046F944F012F882
:1035600006F11402094B19684A6071611A60B3616F
:10357000074A13680133136044F026F8F5830020EE
:1035800086F822003084E3E701207047A800002479
:1035900068AB002470B578B10E460446C38B13F0B7
:1035A000100F17D1C36A9BB19847054650B9E38BFA
:1035B00043F01003E3830EE0C2231D4A1D491E4859
:1035C000FFF788FF024621461C480FF0C5FE1FE0AA
:1035D0000025ECE70025E38B13F0080F03D0238CC4
:1035E00013F0080F21D1236BA3B131462046984731
:1035F0000546062D18BF002D0AD1238C43F0080381
:10360000238494F822300133DBB284F8223033B1C2
:10361000284670BD40F60F7131402184E9E7EE2362
:10362000034A04490648FFF755FF0725F0E700BFA6
:10363000B0B4090818B6090874FA0C08F8B40908F7
:1036400030B5090810B590B1044690F82230B3B1F6
:10365000013BDBB280F822309BB9436B6BB19847DA
:10366000062818BF00280BD10023238408E0FF237D
:10367000054A06490648FFF72DFF0020F0E7012024
:1036800010BD0020FCE700BFB0B4090804B609086B
:1036900074FA0C0810B568B18446C08B10F0010FA5
:1036A0000FD09CF8220098B1DCF83840ACB16046ED
:1036B000A04710BD40F225130A4A0B490B48FFF7FB
:1036C00009FF4FF49373074A07490948FFF702FFC0
:1036D00001203CF011FB0020EBE706203CF00CFB46
:1036E0000020E6E7B0B40908F0B5090874FA0C0840
:1036F00044B5090810B568B18446C08B10F0020FBC
:103700000FD09CF8220098B1DCF83C40ACB1604688
:10371000A04710BD4FF4A5730A4A0B490B48FFF7A9
:10372000D9FE40F24B13074A07490948FFF7D2FE7A
:1037300001203CF0E1FA0020EBE706203CF0DCFA47
:103740000020E6E7B0B40908DCB5090874FA0C08F3
:1037500064B5090810B518B1046C44B1A04710BD98
:1037600040F26B13034A04490448FFF7B3FE0620F6
:10377000F5E700BFB0B40908C4B5090874FA0C082D
:1037800008B510B14162002008BD4FF4C173024A70
:1037900002490348FFF79EFEB0B40908A4B5090822
:1037A00074FA0C0808B510B18162002008BD40F21F
:1037B0009513024A02490348FFF78CFEB0B409088A
:1037C00084B5090874FA0C080E281AD8DFE800F04E
:1037D000081010101C1C0A130D0D1319191C1600CB
:1037E000002070476FF0150070476FF010007047B1
:1037F0006FF0070070476FF01D0070476FF0150005
:1038000070474FF0FF3070476FF0010070470000C5
:1038100003460020002802DD4FF0FF307047034AC6
:1038200052F820209A42F9D00130F3E76CAB002423
:1038300000B583B0009313460A46014601480FF0D5
:103840008BFDFEE770B20908F0B583B0184B1B681A
:10385000ADF804301B0C8DF80630C768AFB10446D4
:103860000068FFF7D5FF0546B0F1FF3F1DD000F11E
:1038700030038DF80430002201A9104602F0C4FE86
:1038800048B1FFF7A1FF03B0F0BD9F23094A0A49E1
:103890000A48FFF7CDFF0026E660094B43F8256094
:1038A00038463BF0DFFE3046EDE76FF00100EAE717
:1038B00078B609082CB60908D0B709086CB609080B
:1038C0006CAB00242DE9F04186B00546384B1B68EF
:1038D000ADF808301B0C8DF80A300020FFF798FF78
:1038E000B0F1FF3F60D0044600F130038DF808309E
:1038F0002868304B43F8240003AA1021FFF72AFF61
:1039000018B9049BB3F5007F2DD84FF410703BF02D
:10391000A5FE064668B3012202A902F075FE07461D
:1039200078B92346244A082168460FF041FD50200B
:103930003BF094FE804618B3694603F032FD07461B
:1039400060B3012202A9002002F05EFE194B0022A2
:1039500043F8242030463BF085FE3846FFF734FF1D
:1039600006B0BDE8F08115480FF0F6FC6FF01500C9
:10397000F6E7104B002243F824206FF00B00EFE72E
:10398000012202A902F040FE0A4B002243F8242043
:1039900030463BF067FE6FF00B00E1E7EE6040461B
:1039A0003BF060FE0020DBE76FF00100D8E700BFCE
:1039B00078B609086CAB0024C0B609087CB60908C3
:1039C0002DE9F04387B00546434B1B68ADF8143032
:1039D0001B0C8DF816304FF400703BF03FFE0028B2
:1039E00077D007464DB32846FFF712FF0446B0F1E3
:1039F000FF3F27D000F130038DF814304FF000085E
:103A0000C146002301930293039304930F238DF87F
:103A100004304FF400733A4601A905A804F028F9D0
:103A2000064638463BF01EFEB8F1000F39D1002E95
:103A300047D1002007B0BDE8F0833BF013FE6FF0E4
:103A40001500F7E70020FFF7E3FE0446B0F1FF3F63
:103A500018D04FF410703BF001FE8146D8B11F4BD7
:103A600043F8245003212846FFF794FDE2B202F107
:103A700030038DF8143005A9484602F0C5FD4FF01B
:103A80000108BEE716480FF067FC38463BF0EAFD38
:103A90006FF01B00CEE738463BF0E4FD6FF00B0003
:103AA000C8E748463BF0DEFDE2B205A9002002F07F
:103AB000ABFD0A4B002243F824202846FFF7C2FD45
:103AC000B5E7314607480FF047FC3046FFF77CFE6C
:103AD000B0E76FF00B00ADE778B609086CAB0024D7
:103AE000C8B60908F0B6090810B584B000B30C4692
:103AF00029B3C36803935B78164A042102A80FF028
:103B000057FC03AA01A902A803F042FDF0B9039AE9
:103B1000136A023B528902FB03F3019901FB02F293
:103B2000A26063604FF400732360002004B010BDF6
:103B300040F21B13084A09490948FFF779FE4FF480
:103B40008E73054A05490748FFF772FEFFF73CFEF2
:103B5000ECE700BF24B709082CB60908C0B709086C
:103B60000CB7090818B70908F8B50446476843694F
:103B700013F4001F1ED013F4007F03D0384603F067
:103B8000A4FE68B950203BF069FD0546002852D0DC
:103B9000394603F006FC064628B925620020F8BD28
:103BA000FFF712FEFBE728463BF05CFD3046FFF7CF
:103BB0000BFEF4E713F0010F2BD1012513F0020FD8
:103BC00001D045F0020513F4007F01D045F0100547
:103BD00013F4806F01D045F0080513F4006F01D095
:103BE00045F004054FF416703BF038FD064628B347
:103BF0002A46394602F042FD0546A8B9B36BE36197
:103C00003369A3612662636913F0080F03D10020B2
:103C1000C5E70325D2E7D6E90423304603F0ADF922
:103C2000B36BE3610020BAE730463BF01BFD28464A
:103C3000FFF7CAFDB3E76FF00B00B0E76FF00B00C2
:103C4000ADE7000038B54388022B0BD00BBB056AEB
:103C5000C5B1284603F07AF9044640B928463BF03E
:103C600001FD04E0006A30B13BF0FCFC002420467A
:103C7000FFF7AAFD38BD40F2B913074A07490848C3
:103C8000FFF7D6FD4FF4E173034A04490548FFF7F7
:103C9000CFFD0024EBE700BF2CB60908B0B7090838
:103CA00028B7090834B70908134B994220D1D0B579
:103CB000046A94B1D4E90E671268D3172069616968
:103CC0009042994110D3A263E363204603F0FDFCC8
:103CD000C4E90E67FFF778FDD0BD40F2D913074A5B
:103CE00007490848FFF7A4FD204603F046F9EFE72F
:103CF0006FF05700704700BF000054522CB60908FF
:103D0000A0B7090834B709084388022B18D030B58A
:103D100083B00446056A55B101AB284602F014FE93
:103D2000AB6BE36150B1FFF74FFD03B030BD40F224
:103D3000FB13054A05490648FFF77AFD0198F4E7A9
:103D40006FF01400704700BF2CB6090890B709083F
:103D500034B709084388022B1AD030B583B0044623
:103D6000056A65B101AB284602F0F3FEAB6BE36177
:103D70002B69A36150B1FFF727FD03B030BD40F2BE
:103D80001223054A05490648FFF752FD0198F4E75A
:103D90006FF01400704700BF2CB6090880B70908FF
:103DA00034B7090808B5006A20B103F005F8FFF739
:103DB0000BFD08BD4FF40973024A03490348FFF79E
:103DC00037FD00BF2CB6090870B7090834B70908D9
:103DD00070B505460C46438893B9066A4EB10A464B
:103DE000CB17304603F0C9F868B9B36BEB61B06B21
:103DF0000BE040F233230F4A0F491048FFF718FD3C
:103E0000022B03D00020FFF7DFFC70BD006A50B129
:103E10000B49A1FB0431090A03F063FB0028F2D12E
:103E2000EC612046F1E740F24323024A024905488B
:103E3000FFF7FEFC2CB6090860B7090834B709087B
:103E4000FDC00FFC28B709082DE9F04FC9B0D0F824
:103E50002080B8F1000F0BD081460E462D4FA7FBF6
:103E600002373F0A07EB8717BF0050D0002522E03A
:103E700040F25A23284A29492948FFF7D9FC01234F
:103E800006F80B300DF11A003BF0ECFC60704FF4BB
:103E90008273638004340DF11A003BF0E3FC421C92
:103EA0000DF11A0120463BF09FFC013505EB85130F
:103EB000B7EB830F1AD905EB85144FEA840B06EB99
:103EC00084046946404603F0CDFA824670B99DF8F5
:103ED0001A305BB1002306F80B309DF80C3013F05C
:103EE000100FCCD0022306F80B30CBE75DB105EB09
:103EF0008513D9F81C2002EB8302C9F81C20980016
:103F000049B0BDE8F08F5046FFF75EFCF8E76FF070
:103F10001500F5E7FDC00FFC2CB609084CB70908E1
:103F200028B7090808B5084603F045FCFFF74CFC24
:103F300008BD08B50846114603F094FDFFF744FCA0
:103F400008BD2DE9F04FD3B0084614460AA903F086
:103F5000E8FA0746002840D10023238048F2B61330
:103F600063609DF8343013F0100F05D04FF4DB730D
:103F7000636044F2FF1363609DF8343013F0010F67
:103F800003D0636823F0920363600A9B2361BDF84A
:103F9000305005F01F0BC5F343196D0ABDF83260B0
:103FA00006F01F084FEA4808C6F3451AF60A24220D
:103FB000002101A83BF05AFB5035069509F1FF336B
:103FC0000593CDF810B00396CDF808A0CDF8048085
:103FD00001A847F0A3FBC4E90A013846FFF7F4FB48
:103FE00053B0BDE8F08F000008B5024805F018FC9A
:103FF000002008BDE0B70908002070470020704786
:1040000038B50D4611461C462A46054D55F8200088
:10401000FFF740FB844201D0012038BD0020FCE7BF
:104020006CAB002438B50D4611461C462A46054D9A
:1040300055F82000FFF75EFB844201D0012038BD17
:104040000020FCE76CAB0024264B53F8200000282E
:1040500046D030B585B00C46154601290AD0022954
:1040600017D0032922D000292FD0042933D00020D3
:1040700005B030BD002301930293039301AA1021E0
:10408000FFF768FB019B2B600BB10020F0E7204697
:10409000EEE7002401940294039401AA1021FFF793
:1040A00059FBBDF808302B802046E1E7002401943D
:1040B0000294039401AA1021FFF74CFB039B029A80
:1040C000B3FBF2F32B602046D2E700221121FFF769
:1040D00041FB2046CCE71221FFF73CFB0020C7E75D
:1040E000012070476CAB002430B58DB0002049F042
:1040F00021FCCDE90A0143F045FA0AA846F0B2FDD9
:10410000844601AD00F1200E2C46DCF80000DCF8FE
:104110000410DCF80820DCF80C300FC40CF1100C93
:104120002546F445F0D1DCF80000206043F04CFA5D
:10413000069BA3F15000059B01335B0543EA4063F6
:10414000049843EA0043039843EAC023029843EAF1
:104150004013019843EA50000DB030BD10B582B055
:1041600003460C46074A082168460FF021F9012052
:1041700043F0FEFE18B12060012002B010BD002007
:10418000FBE700BF40B7090820B108B543F038F895
:10419000012008BD0120704708B54FF47A7142F044
:1041A000D2FF08B1002008BD0120FCE708B542F0AD
:1041B000FAFF08BD08B53BF051FA08BD08B53BF061
:1041C00051FA08BD4278007840EA02207047C27870
:1041D000837843EA0222437843EA0223007840EAE4
:1041E00003207047C279837943EA0222437943EA84
:1041F0000223027942EA0321C3F30743C27842EA69
:1042000001221B0243EA1263817841EA02221B0267
:1042100043EA1263417841EA02211B02007840EA36
:10422000012043EA116170470170090A417070472B
:104230000170C1F307234370C1F307438370090E74
:10424000C17070470270C2F307214170C2F3074189
:104250008170120EC2700371C3F307224271C3F35F
:10426000074282711B0EC3717047944632B10A78BF
:10427000013102700130BCF1010CF8D170470170BE
:104280000130013AFBD1704784469CF800000CF1E4
:10429000010C0B780131C01A013A01D00028F4D08A
:1042A0007047034600E00133187808B18842FAD11C
:1042B0007047802804D9FF2804D128B10020704716
:1042C0000020704701207047012070473F280BD91C
:1042D0007E280BD910F0800F02D148B10020704722
:1042E000FF28FAD001207047002070470120704756
:1042F000012070470239036A023B8B4204D9436BA9
:10430000408901FB003070470020704710B5194606
:104310000368046D0434500A5A89002340EAC150EE
:10432000490AFCF75BFB024601E0121A08342068D8
:1043300018B18242F9D26068104410BD70B50646CB
:104340000D4601F11A00FFF73DFF3378032B00D033
:1043500070BD044605F11400FFF734FF44EA004045
:10436000F6E770B506460C46154691B204F11A0000
:10437000FFF75AFF3378032B00D070BD290C04F1EE
:104380001400FFF751FFF8E72DE9F04180460E4693
:1043900001F11A00FFF716FF58BB357825F04005EC
:1043A000013D05EB450305EB83050127002404E0EF
:1043B0004FF6FF73984221D101340C2C0DD8134BCA
:1043C000185D3044FFF7FEFE002FF1D0FF2D13D80B
:1043D00028F8150007460135EEE7337813F0400F53
:1043E0000ED07FB1FF2D0FD8002328F81530012003
:1043F00000E00020BDE8F0810020FBE70020F9E7A5
:104400000120F7E70120F5E70020F3E78CB8090861
:104410002DE9F84380460F4691464B730F23CB722C
:1044200000240C73214607F11A00FFF7FDFE09F185
:10443000FF3606EB460306EB8306254602E0013411
:104440000C2C11D84FF6FF739D4202D038F816504D
:1044500001360C4B185D29463844FFF7E5FE002D68
:10446000EDD14FF6FF75EAE74FF6FF739D4202D09C
:1044700038F816300BB949F0400987F80090BDE8CC
:10448000F88300BF8CB80908F0B583B0064615461E
:104490001C460B22FFF7E9FE052C11D8072720E068
:1044A00001310F290CD803F0010C0CEB44045B081C
:1044B00014F4803FF4D084F4883484F02104EFE7CE
:1044C0002B88002BEAD002350021EAE77D1E07F198
:1044D00008026A4402F8083C23090F2C0AD92F4627
:1044E0001C4604F00F0202F13003392BEED902F121
:1044F0003703EBE77E2205F108036B4403F8082C31
:10450000002400E00134AC4211D2305D20280ED0EE
:10451000FFF7CFFE0028F5D0BB1EA34207D0013421
:10452000F0E72022631C3255072B09D81C46072DC3
:10453000F7D805F108036B4413F8082C0135F1E7AF
:1045400003B0F0BD01464FF00B0C0020C30143EA5D
:1045500050030878013150FA83F3D8B2BCF1010C52
:10456000F4D1704700B586464178013149010020F9
:10457000034601E0013301338B420AD2022BF9D00A
:10458000420802EBC0321EF803C01CFA82F290B25D
:10459000F1E75DF804FB00EB7100704738B50546A4
:1045A0000C4600693430FFF712FEA06028693830ED
:1045B000FFF718FEC4E904012B6993F8213003F0DA
:1045C0000203E3710023E36138BD0146006820B3B4
:1045D0000246137801323A2B18BF1F2BF9D83A2B19
:1045E00001D0002070470378A3F1300C5FFA8CFCF7
:1045F000BCF1090F0ED80230904202D04FF0FF30CC
:104600007047A3F13000002802DD4FF0FF30704703
:104610000A6070474FF0FF3070474FF0FF3070472F
:1046200008B54069FFF7B8FD08BD70B5C5780DB98C
:10463000284670BD044600F140060123C26B314696
:104640004078FFF7EFFC054688B90023E370E16B83
:10465000E36ACB1A626A9342EAD2A378022BE7D1CB
:1046600001230A4431466078FFF7DCFCE0E70125CE
:10467000DEE770B5C36B8B4202D10026304670BDB9
:1046800004460D46FFF7D1FF06460028F6D1012368
:104690002A4604F140016078FFF7B2FC10B1012610
:1046A0004FF0FF35E563E9E738B504460023C370F2
:1046B0004FF0FF33C363FFF7DCFF002855D104F24E
:1046C0003E20FFF77FFD05464AF6552398420DD060
:1046D00094F84030E92B18BFEB2B11D0E82B0FD00A
:1046E0004AF655239D423ED0032038BD0B22204977
:1046F00004F14000FFF7C8FD0028E9D10120F4E7EC
:104700004AF655239D4224D004F14B00FFF75AFD91
:10471000431E1842E4D1B0F5007FE1D194F84D304A
:10472000002BDDD05A1E1342DAD194F85030013BF1
:10473000DBB2012BD4D804F15100FFF743FD002870
:10474000CED004F15600FFF73DFD0028C8D0002070
:10475000CBE70822074904F19200FFF795FD0028F6
:10476000D2D10020C1E70220BFE70420BDE700BF8F
:104770002CB8090838B8090870B584B006460D464B
:104780000021FFF791FF022819D0B5FA85F35B09E4
:10479000022888BF43F0010373BB0024032C10D808
:1047A00006F14000230103F5E3731844FFF70FFD02
:1047B00004AB03EB840343F8100C0134EEE7002450
:1047C000ECE70DB16C1E0EE02C460CE03046FFF716
:1047D0006BFFB5FA85F35B09012898BF00235BB135
:1047E0000134032C08D804AB03EB840353F8101CEA
:1047F0000029EBD10320ECE704B070BD2DE9F04FA8
:1048000083B00D46164600230B60FFF7DEFE071E41
:10481000C0F2EC81B64B53F82740002C00F0E88141
:104820002046FFF7FDFE002800F0E7812C6006F02F
:10483000FE06237873B16078FFF7E0FB10F0010506
:1048400008D1002E00F0D58110F0040F00F0D181C6
:104850000A25CEE100232370F8B26070FFF7CCFB8D
:1048600010F0010540F0CB811EB110F0040F40F0B4
:10487000C88100212046FFF77FFF042800F0C38194
:10488000012800F2C281E66B00F0DE8004F14B00EB
:10489000FFF798FCB0F5007F40F0D38104F156009B
:1048A000FFF790FC074620B904F16400FFF78FFC86
:1048B0000746676294F85020A270531EDBB2012BAA
:1048C00000F2C18107FB02F894F84D90A4F80A9019
:1048D000B9F1000F00F0B98109F1FF3319EA030FB4
:1048E00040F0B58104F15100FFF76CFC8246208155
:1048F00010F00F0F40F0AD8104F15300FFF762FCA0
:10490000834620B904F16000FFF761FC834604F19F
:104910004E00FFF757FC0246002800F09C8100EB98
:10492000080303EB1A139B45C0F09781ABEB030B15
:10493000BBFBF9F1CB45C0F092816E48814240F259
:10494000D3804FF0000B4FF6F570814201D84FF045
:10495000020B40F6F570814240F2D080BBF1000FAF
:1049600040F0CE800D2544E101333F2B04D8E218FE
:1049700092F84020002AF7D03F2B40F2488104F102
:10498000A800FFF71FFCB0F5807F40F0428194F84B
:10499000AC30092B40F03F8104F18800FFF722FC86
:1049A000871941F100094FF0FF33BB424FF000037C
:1049B00073EB0903C0F0318104F19400FFF707FCA9
:1049C000606294F8AEA084F802A0BAF1010F40F042
:1049D000268194F8AD304FF0010808FA03F81FFA69
:1049E00088F8A4F80A80B8F1000F00F01A8104F1E9
:1049F0009C00FFF7ECFB83463F4B984200F213818B
:104A0000831C2362A66204F19800FFF7E0FB831980
:104A10000193636304F19000FFF7D9FB0644E6625B
:104A200000230BFB08F8019A12EB08085B4147458D
:104A300079EB0303C0F0F98004F1A000FFF7C7FB96
:104A400020630026374609E00B238EE7A31993F86D
:104A50004030812B15D02036C6F30806002EF5D144
:104A60006389BB4240F2E380216B2046FFF742FCA2
:104A7000C1192046FFF7FDFD002840F0DA8001371C
:104A8000E4E704F1400706F114003844FFF79FFB08
:104A90000646012840F2CF80236A834240F2CD804F
:104AA000636B6289811E01FB0233A363E16A01EB40
:104AB000D6112046FFF7DDFD002840F0C08006F04B
:104AC0007F0007EB8000FFF782FBB0F1FF3F04D0CF
:104AD0000136B042EAD00D258BE04FF0FF33E361A1
:104AE000A3614FF0040B35E04FF0030B2BE700BF41
:104AF00070AB0024F5FFFF0FFDFFFF7F4FF0010BB0
:104B000001F10209C4F82090A6623244E262334403
:104B10006363BBF1030F26D0BAF1000F00F0A5804C
:104B200042442263BBF1020F2ED009EB490309F086
:104B3000010909EB530909F2FF13B7EB532FC0F03A
:104B400096804FF0FF33E361A36180232371BBF1B3
:104B5000030F1CD084F800B0464A138801339BB27F
:104B60001380E38045E004F16A00FFF72BFB002887
:104B700077D1BAF1000F76D104F16C00FFF727FB73
:104B800020634FEA8909D6E74FEA4909D3E704F1E0
:104B90007000FFF717FB0128DCD1711C2046FFF7DE
:104BA00068FD0028D6D10023237104F23E20FFF7D0
:104BB00009FB4AF655239842CCD104F14000FFF797
:104BC00006FB2D4B9842C5D104F50970FFF7FFFA9B
:104BD0002A4B9842BED104F50A70FFF7F8FAE0615B
:104BE00004F50B70FFF7F3FAA061B3E70B2500E0C3
:104BF0000C25284603B0BDE8F08F0F25F9E7032503
:104C0000F7E70A25F5E70125F3E70D25F1E70D257F
:104C1000EFE70D25EDE70D25EBE70D25E9E70D2580
:104C2000E7E70D25E5E70D25E3E70D25E1E70D2590
:104C3000DFE75546DDE70D25DBE70D25D9E75546CE
:104C4000D7E70D25D5E70D25D3E70D25D1E70D25B0
:104C5000CFE70D25CDE70D25CBE70D25C9E70D25C0
:104C6000C7E70D25C5E70D25C3E70D25C1E70D25D0
:104C7000BFE700BFF04801245252614172724161A6
:104C80002DE9F843054691468F1E036A023BBB425D
:104C900000D80027B8463C460026A96B01EB14312A
:104CA0002846FFF7E6FC844640BBC4F3C80004F086
:104CB000070201239340DBB209E0A0460026A74289
:104CC0001FD023B90130B0F5007FE6D201232A18A6
:104CD00092F840201A405B00DBB20134296A0239A5
:104CE000A14203D8634600244FF40070002AE4D1A7
:104CF00001364E45E3D108F1020003E04FF0FF30EA
:104D000000E00020BDE8F8832DE9F8430646174689
:104D100098468C1E816B01EB1431C4F3C80504F076
:104D20000704012303FA04F4E4B201F10109304657
:104D3000FFF79FFC024610B101221EE00124731907
:104D400093F84010214214BF01230023434513D0A0
:104D50007319614083F840100123F370013F0CD0B8
:104D60009C4014F0FF04EAD11D441C46B5F5007FB9
:104D7000E4D349460025D8E702221046BDE8F8836F
:104D80002DE9F047012940F2878005460C4616467A
:104D9000036A8B4240F284800378022B69D036D8B4
:104DA000012B32D101EB5108C16A01EB5821FFF709
:104DB00060FC0746002870D105F1400A08F101099E
:104DC000C8F3080814F0010448D01AF9083003F0B9
:104DD0000F03320102F47F621343DBB20AF808309A
:104DE0000123EB70E96A01EB59212846FFF741FCEA
:104DF0000746002851D1C9F308098CB3C6F307163A
:104E00000AF809600123EB7047E0022745E0033B05
:104E1000DBB2012B46D8C16A01EBD411FFF729FCA4
:104E20000746D0BB2B78042B0CD026F0704605F13A
:104E30004000A30003F4FE731844FFF7C8F900F024
:104E40007040064305F14000A40004F4FE743146AE
:104E50002044FFF7EDF90123EB701EE0F3B2BDE74C
:104E60001AF9093023F00F03C6F303261E43F6B2E6
:104E7000C6E7C16A01EB1421FFF7FBFB074660B9E7
:104E800005F14000640004F4FF74B1B22044FFF760
:104E9000CBF90123EB7000E002273846BDE8F0872C
:104EA0000227FAE70227F8E770B504460D461646D2
:104EB00007E03246FFF764FF034658B9E369013B58
:104EC000E361E36933B12068EA1A511C012BF0D980
:104ED0000232EFE7184670BDC379032B02D00023DE
:104EE0001846704770B50646816884694CB14D1C00
:104EF0002A463068FFF744FF034620B9013C2946A3
:104F0000F4E70023F371184670BDF8B50568012970
:104F100040F298800C462B6A8B4240F295802B78A9
:104F2000013B032B00F29280DFE803F0022B3C4FA1
:104F300001EB5106E96A01EB56212846FFF799FB80
:104F400010B14FF0FF307EE0771CC6F308062E4408
:104F500096F84060E96A01EB57212846FFF789FB84
:104F6000002875D1C7F30800284490F8400046EAAD
:104F7000002014F0010F01D0000964E0C0F30B0021
:104F800061E0E96A01EB14212846FFF772FB002873
:104F900061D105F14000640004F4FF742044FFF780
:104FA00011F950E0E96A01EBD4112846FFF761FBE3
:104FB000002853D105F14000A40004F4FE742044FD
:104FC000FFF705F920F070403DE00369426953EABC
:104FD000020101D0816811B9C179002941D18168EC
:104FE000611A013B42F1FF325B0A43EAC2536A890C
:104FF000B3FBF2F3C279022A08D0032A0BD0022AAB
:1050000034D0C36963B16FF000401CE09942F4D81A
:1050100029D0601C17E083698B42F0D9601C12E034
:10502000E96A01EBD4112846FFF723FB00BB05F129
:105030004000A30003F4FE731844FFF7C8F820F003
:10504000004000E00120F8BD0120FCE70120FAE764
:105050004FF0FF30F7E74FF0FF30F4E74FF0FF304D
:10506000F1E70120EFE76FF00040ECE70120EAE70D
:105070004FF0FF30E7E72DE9F04106460F46D0F844
:10508000008098F80030042B29D04FF40013BB4265
:1050900043D917F01F0F42D13763B4683CB998F871
:1050A0000030022B03D9D8F830400023F371CCB97B
:1050B000B8F80830B3EB571F33D9D8F83030B363A2
:1050C0007463B36BABB303EB5723B36308F14003D3
:1050D000C7F308011944F1630020BDE8F0814FF0E7
:1050E0008053D4E7B8F80A506D02AF420FD321467F
:1050F0003046FFF70AFF0446B0F1FF3F13D0012806
:1051000013D9D8F82030834211D97F1BEDE721460F
:105110004046FFF7EFF8B063D2E70220DDE7022058
:10512000DBE70220D9E70120D7E70220D5E70220FC
:10513000D3E70220D1E72DE9F8430746D0F80080F5
:10514000894641B9D8F81860B6B1D8F82030B342D2
:1051500013D8012611E0FFF7D8FE0546012840F2DA
:10516000CC80B0F1FF3F00F0D280D8F820308342ED
:1051700000F2CD804E4600E00126D8F81C50002DEC
:1051800000F0C58098F80030042B03D04E454AD07B
:10519000344697E0012231464046FFF771FD05464F
:1051A000431E13F1030F00F2B28001231A46014699
:1051B0004046FFF7A9FD0346022800F0A080012821
:1051C00000F09F80B9F1000F19D10222FA71FA792B
:1051D000022A00F0878009F10102AA421BD0FB6974
:1051E0000BB90123FB612A4649463846FFF75CFEAE
:1051F0000346002878D10122FA612C463FE0FA7973
:10520000022AE4D1721CAA42E1D0BA68B21ABA6189
:105210000322FA71DBE7FA691AB10132FA612C460E
:105220002DE00222FAE7741CD8F82030A34200D8FF
:10523000022421463846FFF768FE0546B0F1FF3FDD
:1052400018BF012863D048B1D8F81830012B9FD976
:10525000D8F820209A429BD91E4699E7002C97D077
:105260004FF0FF3221464046FFF78AFD0346B0FA71
:1052700080F04009B9F1000F08BF002058BBABBB5C
:10528000C8F81840D8F81C20D8F82030023B9A42C1
:1052900002D8013AC8F81C2098F8043043F0010302
:1052A00088F80430254632E021463846FFF72DFEC7
:1052B00005460028D4D0B0F1FF3F18BF012826D002
:1052C000B44223D00134D8F82030A342ECD8012EC8
:1052D0001AD90224E8E7224649464046FFF750FD26
:1052E0000346CCE72C46CAE72C46C8E7012B01D081
:1052F00001250CE04FF0FF3509E0012507E001250D
:1053000005E04FF0FF3502E0002500E000252846CB
:10531000BDE8F8832DE9F0470568012940F28E8049
:1053200007460C4691462B6A8B4240F28A8072B146
:105330002B78042B02D1C379022B08D04FF0FF3217
:1053400049462846FFF71CFD824600287BD1A0462F
:1053500011E0002231462846FFF712FD8246C8B10F
:1053600071E0731CA34203D02B78042B1ED0A046FF
:105370002B6AA34227D9264621463846FFF7C5FDAA
:10538000044600B3012861D0B0F1FF3F61D02B7813
:10539000042BDED1EA692B6A023B9A42E1D2013248
:1053A000EA612B7943F001032B71DAE7A6EB0802DF
:1053B0000023013241462846FFF7A6FC824600281A
:1053C00041D1A046D4E72B78042B02D04FF0000A3D
:1053D00039E0B9F1000F04D14FF0000A87F807A0B7
:1053E00031E097F807A0BAF1000F15D1BC684C4521
:1053F0000DD021463846FFF788FD01282CD9B0F1A1
:10540000FF3F2CD0631C834201D11C46EFE74C4583
:1054100019D10223FB7116E0BAF1030F02D04FF04D
:10542000000A10E0BB684B451CD8BA6913444B45D1
:105430001BD30223FB714FF0000A04E04FF0020A75
:1054400001E04FF0020A5046BDE8F0874FF0020A33
:10545000F9E74FF0010AF6E74FF0020AF3E74FF0E1
:10546000010AF0E74FF0000AEDE74FF0000AEAE723
:10547000002818BF0C290CD008B5B1F10F0218BFD5
:1054800001220B2900D002B908BD4069FEF78EFE4B
:10549000FAE7704738B50D46044608B3006808B30C
:1054A000037813B3A288C3889A4203D0092000244A
:1054B0002C6038BDFFF7B4F810B90F200024F7E7CF
:1054C00023685878FEF79AFD10F0010001D1246896
:1054D000EEE700212068FFF7CBFF09200024E7E773
:1054E0000920E5E704460920E2E709200024DFE778
:1054F0002DE9F84306460C46FFF797F810B1012056
:10550000BDE8F88321463046FEF7F4FE8046F0639E
:1055100006F140094FF4007200214846FEF7AFFE45
:1055200074896402B4F5004F01D34FF4004400279E
:1055300000E06408B4F5007F05D92046FEF73AFE86
:1055400007460028F5D0B4F5007F01D800251DE0FE
:10555000224600213846FEF792FE640A002500E04C
:1055600025447389AB4208D9234605EB0802394626
:105570007078FEF757FD0028F2D03846FEF71EFE81
:105580007089401B18BF0120BAE701357389AB420F
:10559000F6D9012305EB080249467078FEF742FD73
:1055A0000028F2D0ECE72DE9F84304468846056868
:1055B000066B20362B78042B1AD04FF40013B3421D
:1055C00001D80023A363A36B002B4CD0C6F30807BC
:1055D0003FB90133A363616B89B92B89B3EB561FC4
:1055E00009D9266340353D44E5630020BDE8F883D2
:1055F0004FF08053E3E70023A3630420F6E76B89B1
:10560000013B13EA5623ECD12046FFF77EFC81468E
:1056100001282AD9B0F1FF3F29D02B6A834216D83E
:10562000B8F1000F1BD0616B2046FFF784FD814667
:10563000F8B101281FD0B0F1FF3F1ED00146284627
:10564000FFF756FFD8B9E37943F00403E371C4F8D8
:10565000349049462846FEF74DFEA063C1E700237B
:10566000A3630420C2E70420C0E70220BEE70120B4
:10567000BCE70720BAE70220B8E70120B6E701201F
:10568000B4E700002DE9F041044600680669A16B0B
:10569000FEF7EFFF054620B9E16B0B78852B03D0B1
:1056A00002252846BDE8F08120223046FEF7DDFDC8
:1056B000737801335F01A7F16003B3F5007F59D818
:1056C00000212046FFF76FFF054604280ED0002872
:1056D000E7D1A16B2068FEF7CCFF05460028E0D19A
:1056E000E16B0B78C02B03D00225DAE70225D8E75F
:1056F0002022B018FEF7B9FD96F823302C33204A4B
:10570000A2FB0323DB08B7EB431F35D34FF0400860
:1057100005E00225C5E708F1200847451CD900210E
:105720002046FFF740FF05460428F2D00028B8D1F4
:10573000A16B2068FEF79DFF05460028B1D1E16B03
:105740000B78C12B1AD1B8F5187FE4D2202206EBD2
:105750000800FEF78AFDDEE7B8F5187FA1D83046CD
:10576000FEF700FF0446B01CFEF72CFD844298D0E3
:10577000022596E7022594E7022592E7022590E7A5
:105780008988888810B504460B6803600B6A8360BB
:1057900091F82430C3714B6A23F0FF0300220361A8
:1057A0004261C261896AC164FFF765FC00B110BD46
:1057B0002046FFF767FFFAE72DE9F84304468846DD
:1057C00006684FF0FF094F46042508E0852B28D0D6
:1057D00000212046FFF7E7FE0546002859D1A16BBE
:1057E000002956D03046FEF744FF0546002850D128
:1057F000E16B0B78002B4BD03278042AE6D0CA7AC2
:1058000002F03F02A2712E2B18BFE52B3CD022F0F4
:105810002000082814BF0020012040450ED0FF279B
:10582000D6E7236BE3642046FFF72CFF054680BBD9
:1058300033691B7903F03F03A3712AE00F2A19D1C2
